:100000000C947D060C94C4060C94C4060C94C4068F
:100010000C94C4060C94C4060C94C4060C94C40638
:100020000C94C4060C94C4060C9468280C943A29C9
:100030000C947C210C94C4060C94C4060C94C40645
:100040000C94C4060C94C4060C94C4060C94C40608
:100050000C94C4060C94E4210C94C4060C94C406BD
:100060000C94C4060C94C4060C94C4060C94C406E8
:100070000C94C4060C94C4060C94C4060C94C406D8
:100080000C94C4060C94C4060C94C4060C94C406C8
:100090000C94C4060C94C4060C94C4060C94C406B8
:1000A0000C94C4060C94C4060C94C40616091809D2
:1000B00023091A091C091E092009220925092709F3
:1000C000290934092B092D092F093109330936096A
:1000D0009A179A17CC17CC175D195D195D195D1920
:1000E0000A185D19B718B718291932195D19561968
:1000F000C418C418C418C418C418C418C418C41820
:10010000C418C418C418C418C418C418C418C4180F
:10011000D518E318EA18F118FB18E019E019F219DC
:10012000F219E919F219F219F219E019E019EE19A8
:10013000F219F219EE19A729CE29C02ACE29C02A10
:100140001A2A3D2AC02A932AA22A07634236B79B5D
:10015000D8A71A39685618AEBAAB558C1D3CB7CC27
:100160005763BD6DEDFD753EF6177231BF0000009F
:10017000803F05A84CCDB2D44EB93836A9020C50F8
:10018000B9918688083CA6AAAA2ABE000000803F32
:10019000165C1E001F002000210022002300240006
:1001A0002500260027002D002E004B004E002B00BE
:1001B000000014001A000800150017001C001800A9
:1001C0000C00120013002F00300031002A00000044
:1001D00004001600070009000A000B000D000E00C5
:1001E0000F003300340028000000D65C00001D0022
:1001F0001B00060019000500110010003600370032
:100200003800000052004C00E00046420000E200CE
:100210002C680000490000002C410000E600650049
:10022000500051004F0035003A003B003C003D00BB
:100230003E003F00400041004200430044004500B2
:100240004A004D0001000000C25CC35CC55CC65C96
:10025000C75CC85CC95CCA5C010001000100010008
:10026000005C01000000010001000100010001002C
:100270005000520051004F00010001000100000039
:10028000E100010001000100BD5CBF5CBE5CC05C20
:100290000100010001000100000052000100E00027
:1002A00001000000E2000100000001000000010068
:1002B000000001000100500051004F0029003A00E9
:1002C0003B003C003D003E003F004000410042003A
:1002D00043004400450001004C002B0000004B008F
:1002E00052004E004A00010001000100010001001F
:1002F00001000100010001002A000000500051002F
:100300004F004D000100010001000100010001004B
:10031000010001000000E1000100A50046004901C4
:10032000496201000100010001000100010000001C
:1003300052000100E00001000000E200E3000000C4
:10034000E0040000E4000000E6000100500051005D
:100350004F00010001000100010001000100010047
:100360000100010001000100010001000100010085
:100370000100000001000100010001000100010076
:100380000100010001000100010001000100010065
:100390000000010001000100010001000100010056
:1003A0000100010001000100010000000100010046
:1003B0000100010001000100010001000100010035
:1003C0000100010000000100010001000100000027
:1003D0000100010000000100000001000000010018
:1003E0000100010001000100010001000100010005
:1003F00001000100010001000100010001000100F5
:1004000001000100010001000000010001000100E5
:1004100001000100010001000100010001000100D4
:1004200001000100010000000100010001000100C5
:1004300001000100010001000100010001000100B4
:1004400000000100010001000100010001000100A5
:100450000100010001000100010000000100010095
:100460000100010000000100010000000100000087
:100470000100000001000100010001000100010075
:100480000100010001000100010001000100010064
:100490000100010001000100010001000100000055
:1004A0000100010001000100010001000100010044
:1004B0000100010001000100010001000000010035
:1004C0000100010001000100010001000100010024
:1004D0000100010001000000010001000100010015
:1004E0000100010001000100010001000100010004
:1004F00000000100010001000100000001000100F6
:1005000000000100000001000000010001000100E6
:1005100001000100010001000100010001000100D3
:1005200001000100010001000100010001000100C3
:1005300001000100000001000100010001000100B4
:1005400001000100010001000100010001000100A3
:100550000100000001000100010001000100010094
:100560000100010001000100010001000000010084
:100570000100010001000100010001000100010073
:100580000100010001000000010001000100010064
:100590000000010001000000010000000100000057
:1005A0000100010001000100010001000100010043
:1005B0000100010001000100010001000100010033
:1005C0000100010001000100010000000100010024
:1005D0000100010001000100010001000100010013
:1005E0000100010001000100000001000100010004
:1005F00001000100010001000100010001000100F3
:1006000001000000010001000100010001000100E3
:1006100001000100010001000100010000000100D3
:1006200001000100010000000100010000000100C4
:1006300000000100000001000100010001000100B4
:1006400001000100010001000100010001000100A2
:100650000100010001000100010001000100010092
:100660000000010001000100010001000100010083
:100670000100010001000100010001000100000073
:100680000100010001000100010001000100010062
:100690000100010001000100000001000100010053
:1006A0000100010001000100010001000100010042
:1006B0000100000001000100010001000000010034
:1006C0000100000001000000010000000100010025
:1006D0000100010001000100010001000100010012
:1006E0000100010001000100010001000100010002
:1006F00001000100010000000100010001000100F3
:1007000001000100010001000100010001000100E1
:1007100001000100000001000100010001000100D2
:1007200001000100010001000100010001000000C2
:1007300001000100010001000100010001000100B1
:1007400001000100010001000000010001000100A2
:100750000100000001000100000001000000010094
:100760000000010001000100010001000100010082
:100770000100010001000100010001000100010071
:100780000100010001000100010001000000010062
:100790000100010001000100010001000100010051
:1007A0000100010001000100010000000100010042
:1007B0000100010001000100010001000100010031
:1007C0000100010000000100010001000100010022
:1007D0000100010001000100010001000100000012
:1007E0000100010001000100000001000100000003
:1007F00001000000010000000100010001000100F3
:1008000001000100010001000100010001000100E0
:1008100001000100010001000100010001000100D0
:1008200001000000010001000100010001000100C1
:1008300001000100010001000100010001000100B0
:1008400000000100010001000100010001000100A1
:100850000100010001000100010000000100010091
:100860000100010001000100010001000100010080
:100870000100010000000100010001000100000072
:100880000100010000000100000001000000010063
:100890000100010001000100010001000100010050
:1008A0000100010001000100010001000100010040
:1008B0000100010001000100000001000100010031
:1008C0000100010001000100010001000100010020
:1008D0000100010001000000010001000100010011
:1008E0000100010001000100010001000100010000
:1008F00000000100010001000100010001000100F1
:1009000001000100010001000100000001000100E0
:1009100001000100000001000100000001000000D2
:1009200001000000010001000100010001000100C0
:1009300001000100010001000100010001000100AF
:1009400001000100010001000100010001000000A0
:10095000010001000100010001000100010001008F
:100960000100010001000100010001000000010080
:10097000010001000100010001000100010001006F
:100980000100010001000000010001000100010060
:10099000010001000100010001000100010001004F
:1009A0000000010001000100010000000100010041
:1009B0000000010000000100000001000100010032
:1009C000010001000100010001000100010001001F
:1009D000010001000100010001000100010001000F
:1009E0000100010000000100010001000100010000
:1009F00001000100010001000100010001000100EF
:100A000001000000010001000100010001000100DF
:100A100001000100010001000100010000000100CF
:100A200001000100010001000100010001000100BE
:100A300001000100010000000100010001000100AF
:100A400000000100010000000100000001000000A2
:100A5000010001000100010001000100010001008E
:100A6000010001000100010001000100010001007E
:100A7000010001000100010001000000010001006F
:100A8000010001000100010001000100010001005E
:100A9000010001000100010000000100010001004F
:100AA000010001000100010001000100010001003E
:100AB000010000000100010001000100010001002F
:100AC000010001000100010001000100000001001F
:100AD0000100010001000000010001000000010010
:100AE0000000010000000100010001000100010000
:100AF00000047F3F1F643214643214783C1E1E14BD
:100B00000A056801F000B40078005A0000000000F7
:100B100000010101010101010101020202020202C0
:100B20000202020303030303030303040404040493
:100B30000405050505050606060606070707070856
:100B40000808080909090A0A0A0A0B0B0B0C0C0C05
:100B50000D0D0D0E0E0F0F0F10101111111212139B
:100B6000131414151516161717181819191A1A1B15
:100B70001C1C1D1D1E1F1F20202122222324252571
:100B800026272728292A2B2B2C2D2E2F2F303132A8
:100B900033343536363738393A3B3C3D3E3F4041B9
:100BA000424344464748494A4B4C4D4F505152539B
:100BB000555657585A5B5C5E5F606263646667694E
:100BC0006A6C6D6E707173747678797B7C7E8081CF
:100BD000838486888A8B8D8F91929496989A9B9D18
:100BE0009FA1A3A5A7A9ABADAFB1B3B5B7B9BBBD25
:100BF000BFC1C4C6C8CACCCFD1D3D6D8DADCDFE1F6
:100C0000E4E6E8EBEDF0F2F5F7FAFCFF0403300060
:100C100000000A0344005A003600300000000E03B2
:100C200064007A007400650063006800000004033B
:100C3000090409023B00020100A0FA0904000001B6
:100C40000301010009211101000122400007058173
:100C50000308000A09040100010300000009211132
:100C6000010001223B000705820320000A12011047
:100C70000100000008EDFE606001000102030105B3
:100C8000010906A1018505050719E029E7150025D9
:100C90000195087501810205081901290595057559
:100CA0000191029501750391010507190029EF15BE
:100CB00000250195F075018102C005010906A10119
:100CC000050719E029E7150025019508750181023E
:100CD000950175088101050819012905950575011A
:100CE00091029501750391010507190029FF15006F
:100CF00026FF00950675088100C011241FBECFEFA6
:100D0000DAE0DEBFCDBF04B603FE27C080918102CA
:100D100090918202A0918302B09184028730904B1F
:100D2000A740B04BD1F4109281021092820210922F
:100D300083021092840214BE84B7877F84BF0FB6EB
:100D4000F894A8958091600088618093600010926B
:100D500060000FBEE0E0F8E3099511E0A0E0B1E02B
:100D6000ECE1FEE502C005900D92AE32B107D9F775
:100D700022E0AEE2B1E001C01D92A138B207E1F776
:100D80000E948A250C940C2F0C94000080E090E0C7
:100D900008950895089581E0089580FF02C0229A81
:100DA00001C022982A98089581E008950C94CB06FA
:100DB0000C948F0CCF92DF92EF92FF928A3030F436
:100DC000811105C0909180009F7D04C089E09091C1
:100DD0008000906290938000282F30E0AFEFBFEF4B
:100DE0000E949D2E29E030E040E050E00E94752EE8
:100DF0002C3784E138074105510530F4C90169E019
:100E000070E00E944D2E29C0DA01C9018A50974D29
:100E1000AF4FBF4F6627782F892F9A2F25EF38E2E3
:100E200041E050E00E94752E69017A01CA01B901C2
:100E30000E943D2E9B01AC01C701B6010E943D2ED0
:100E4000BB27A92F982F872F009721E0A207B10574
:100E500011F0BC0102C06FEF7FEF70938B006093C5
:100E60008A00FF90EF90DF90CF900895269A2E98F9
:100E700082E28093800089E1809381008FEF9FEF71
:100E800090938700809386000C94A3230E941220E5
:100E9000811102C00E9493200E9436070C948D0C91
:100EA0000C94CD060C94500708950E94D0190E940E
:100EB00054072FEF84E39CE0215080409040E1F7FD
:100EC00000C000000C940A22FF920F931F93CF934F
:100ED000DF938C01FC01C081D18180917B01811164
:100EE00013C08281882349F0CE010E94051FF82E8D
:100EF000682FCE010E94AA1E04C0CE010E94D91EF6
:100F0000F82EBE018F2D04C0CE010E94051FBE0128
:100F10000E94E309EC01B8010E94D606882309F477
:100F20004AC2CC3CFCE5DF0709F4DFC0E8F5C43C6D
:100F30009CE5D90709F4A3C0F8F4C531FCE5DF0747
:100F400078F4C2308CE5D80708F04EC1C1159CE595
:100F5000D90709F465C0C130DC4509F469C01EC277
:100F6000C23CFCE5DF0709F476C008F07CC0C6315E
:100F7000DC4509F4ECC112C2F8018281C83CFCE5F1
:100F8000DF0709F49AC040F4C63CECE5DE0709F43B
:100F900088C008F480C08BC0CA3C9CE5D90709F41E
:100FA00098C008F490C09BC0C43DFCE5DF0709F47D
:100FB000F6C0C0F4F8018281C03DFCE5DF0709F40A
:100FC000BDC040F4CE3CECE5DE0709F49BC008F45C
:100FD00094C0A6C0C23D9CE5D90709F4CDC008F471
:100FE000BDC0D8C0C83DFCE5DF0709F495C150F489
:100FF000F8018281C63DFCE5DF0709F447C108F42A
:10100000DEC065C1CC3DECE5DE0709F4E4C0CD3DB2
:10101000FCE5DF07C1F0CB3DDC4509F0BFC1D4C022
:10102000F8018281882309F4C6C10E945507C3C113
:10103000F8018281882309F4BEC180911302816086
:1010400080931302B8C1F8018281882309F4B3C1E7
:101050000E949320B0C1F8018281882309F4ABC1BA
:101060000E941111A8C1F8018281882309F4A3C14B
:101070000E94D61F827261F00E94B6109CC1F801D6
:101080008281882309F497C10E94D61F8272A1F33E
:101090000E94A81090C1882309F48DC10E94AB0F53
:1010A0008AC1882309F487C10E94CF0F84C1882395
:1010B00009F481C10E94EF0F7EC1882309F47BC12E
:1010C0000E940F1078C1882309F475C10E942F1067
:1010D00072C1882309F46FC10E944F106CC188232C
:1010E00009F469C10E94650E66C1F80182818823F6
:1010F00009F461C10E947A0E5EC1882309F45BC1C4
:1011000081E029C0882309F456C10E945C0E823018
:1011100028F00E945C0E853008F4BACF82E01BC034
:10112000882309F448C10E945C0E863028F00E9492
:101130005C0E883008F4ACCF86E00DC0882309F43B
:101140003AC10E945C0E893028F00E945C0E8E30FD
:1011500008F49ECF89E00E94B9102DC1882309F4BC
:101160002AC10E945C0E8F3028F00E945C0E8431F0
:1011700008F48ECF8FE0EFCF882309F41CC10E94C2
:101180005C0E853128F00E945C0E873108F480CF18
:1011900085E1E1CF882309F40EC188E1DCCFF801B5
:1011A0008281882309F407C10E945C0E893128F0EE
:1011B0000E945C0E823208F46BCF89E1CCCF882389
:1011C00009F4F9C083E2C7CFF8018281882309F4CA
:1011D000F2C080E006C0F8018281882309F4EBC0E8
:1011E00082E00E942B26E7C0F8018281882309F45F
:1011F000DAC00E941220811102C00E9493200E9436
:101200002F2090E09093720280937102FE01E350D0
:10121000FC45E231F10530F4EA5AFF4F809171024A
:101220000C94972E80917102816027C0826025C046
:10123000846023C0806121C080621FC080641DC0A3
:1012400080681BC08460886018C08E7F16C08D7F48
:1012500014C08B7F12C08F7E10C08F7D0EC08F7B1D
:101260000CC08F770AC08B7F877F07C087FB222740
:1012700020F991E0922790FB87F980937102809189
:1012800071020E9433200E94D01995C0882351F02A
:10129000109233010E94AE219093300180932F0170
:1012A00082E020C08091330181110FC080912F0115
:1012B000909130010E94BA21883C910530F486E279
:1012C0000E94E01586E20E94F71682E022C0882381
:1012D00061F0109234010E94AE219093320180930C
:1012E000310180E20E94561766C08091340181115D
:1012F0000FC080913101909132010E94BA21883C47
:10130000910530F487E20E94E01587E20E94F7160B
:1013100080E20E945D174FC0F80182818111D9CF10
:10132000809134018111F4CF80913101909132018B
:101330000E94BA21883C910558F780E20E945D170F
:1013400088E20E94E01588E20E94F71634C00E94ED
:10135000D61F282FF801828140910D0150910E0176
:10136000882379F02A7A91E009F490E090932E0195
:10137000911102C069E201C065E3CA010E94FA202E
:101380000AC080912E01811102C069E201C065E3AB
:10139000CA010E9405210E94A31F0DC081E0809315
:1013A000330180933401C801DF91CF911F910F91D8
:1013B000FF900C94D40680E0DF91CF911F910F91A4
:1013C000FF90089508959FE0799FF00111249BE418
:1013D000899FE00DF11D1124E60FF11DEE0FFF1F97
:1013E000E057FE4F859194910895880F991FFC0155
:1013F000E051F54F859194910895CF93DF930E942A
:10140000E3090E94ED0BEC01811521E5920708F03C
:1014100042C0811560E5960708F02CC1883E910511
:1014200000F5803E910508F0D4C1883A910570F42A
:10143000853A910508F0A2C08130910509F4C9C12F
:1014400008F47AC1049708F0C4C176C18F3B9105B6
:1014500008F49FC0803C910508F46EC1805C91093E
:10146000F9C0C11580E3D80780F4C11590E2D9070F
:1014700008F0EEC0C03FD10508F45EC1CF3FD105F2
:1014800011F008F0A6C1D065A4C1C11520E4D207AF
:1014900008F0EDC0E2C0811569E5960760F5C11559
:1014A00088E5D80708F032C1C11594E5D90778F46A
:1014B000C11523E5D20708F00EC1C11562E5D607B4
:1014C00008F0F3C0DC2FCC27C16FD06A82C1C115F0
:1014D00085E5D80708F415C1C11596E5D90708F0C8
:1014E0002BC18C2F0E946A0C8F71C82FD0E0DC2F8B
:1014F000CC27D0626EC18D3B2CE5920709F413C155
:10150000D0F4CB3B8CE5D80709F407C108F008C13B
:10151000C1152AE5D20708F00FC12C2F2F70206EBD
:1015200030E0306A84E0D695C7958A95E1F7CF70B0
:10153000C9019C2BF0C0803C9C4509F4FAC0C13C19
:101540008CE5D80760F4CE3B9CE5D90709F4EEC0E2
:10155000CF3BDC4509F0F0C0C0E0D2ED3AC1CE018E
:1015600090568115904208F0E7C08D2F8F710E9430
:101570006A0CDD27D0628F71D82B2BC1853A91057B
:1015800009F4DDC0863A910509F0DCC0C2E8D0E478
:1015900020C1883A910509F4D8C0893A910509F427
:1015A000D7C08A3A910509F4D6C08B3A910509F45F
:1015B000D5C08C3A910509F4D4C08B3B910509F450
:1015C000D3C08C3B910509F4D2C08D3A910509F442
:1015D000D1C0803B910509F4D0C08E3A910509F441
:1015E000CFC08F3A910509F4CEC0813B910509F433
:1015F000CDC0823B910509F4CCC0833B910509F431
:10160000CBC0843B910509F4CAC0853B910509F420
:10161000C9C0863B910509F4C8C0873B910509F410
:10162000C7C0883B910509F4C6C0893B910509F400
:10163000C5C08D3B910509F4C4C08E3B910509F4EA
:10164000C3C08A3B910509F4C2C0C0E0D4E4C1C064
:10165000CE019F700E94F5095EC0CE019927D3FF8D
:1016600003C0EC01D86CB5C0EC01D06CB2C0DF7027
:10167000D06AAFC0837021E030E002C0220F331F78
:101680008A95E2F73C68CE0154E0969587955A9585
:10169000E1F78370382BCF70C695C69580E2C89F5E
:1016A000E0011124C22BD32B94C04C2F46954695B4
:1016B00090E2499FA0011124C370DD2721E030E0B2
:1016C000C90102C0880F991FCA95E2F7EC01C42B2B
:1016D000D52BDC687EC04C2F4695469580E2489F0E
:1016E000A0011124C370DD2721E030E0C90102C050
:1016F000880F991FCA95E2F7EC01C42BD52BDA6845
:1017000068C0DC2FCC27C46FD06A63C0DC2FCC2725
:10171000C06FD06A5EC0EC015CC0C0E0D4ED59C0BF
:10172000C0E0D5ED56C0C0E0D1ED53C0C0E0D0ED73
:1017300050C0C0E0D3ED4DC0C0E0D0E04AC0C1E829
:10174000D0E447C0C3E8D0E444C0C2EED4E441C012
:10175000C9EED4E43EC0CAEED4E43BC0C5EBD4E449
:1017600038C0C6EBD4E435C0C3EBD4E432C0C4EB1C
:10177000D4E42FC0C7EBD4E42CC0CCECD4E429C013
:10178000CDECD4E426C0C3E8D5E423C0CAE8D5E450
:1017900020C0C2E9D5E41DC0C4E9D5E41AC0C1E245
:1017A000D6E417C0C3E2D6E414C0C4E2D6E411C044
:1017B000C5E2D6E40EC0C6E2D6E40BC0C7E2D6E46A
:1017C00008C0CFE6D4E405C0C0E7D4E402C0CAE252
:1017D000D6E4CE01DF91CF9108958238910549F189
:1017E000B0F48133910509F458C048F48932910569
:1017F00009F44EC08A32910509F454C00895853326
:10180000910509F440C08933910599F00895833E0C
:10181000910529F138F4803E910591F0823E9105C1
:10182000A1F00895863E9105F9F0873E910531F1CA
:1018300008952091710220FD3AC021FD38C008951D
:101840008091710280FD35C032C08091710282FFAB
:1018500032C08091710284FD30C083EE39C0809126
:10186000710282FD28C0F5CF8091710283FF27C0ED
:101870008091710284FD21C087EE2AC0809171029F
:1018800083FD1DC0F5CF8091710285FD1AC01BC07C
:101890008091710285FD17C014C08091710286FD90
:1018A00014C015C08091710286FD11C00EC080EE7B
:1018B0000FC089E30DC082EE0BC080E009C086EE48
:1018C00007C089E205C085E303C08AE201C081E365
:1018D00090E008959091710292FF0DC0282F287119
:1018E000283019F4877F846006C0282F24712430A3
:1018F00011F48B7F886093FF0DC0282F2871283149
:1019000019F4877E846106C0282F2471243111F4D4
:101910008B7E886194FD877E08950C94C9060C9493
:10192000CA06E9E2F1E041E050E025E02E0F919196
:10193000A92FA295AF70B0E091963C9191979F70BE
:10194000BA0102C0660F771F9A95E2F7CB01809526
:10195000832391968C932E13EACFAAE1B1E041E064
:1019600050E02FE02A0F8D91E82FE295EF70F0E024
:1019700031A18F70BA0102C0660F771F8A95E2F716
:10198000CB01962F9095932391A392A1892B82A3AB
:101990002A13E9CFEFE3F1E0A5E3B1E01192119250
:1019A0001D921D9271E0E934F707C1F785E00E94AE
:1019B0007D0D0C9446074F925F927F928F929F927B
:1019C000AF92BF92CF92DF92EF92FF920F931F934D
:1019D000CF93DF9329E2422E21E0522EAFE3B1E014
:1019E00020E001E010E05D018D909C901197119630
:1019F0001C921E92E20189912E01E82FE295EF7070
:101A0000F0E031A18F70A80102C0440F551F8A95E4
:101A1000E2F7CA01342B31A342A1382F309543237A
:101A200042A350EA5A95F1F79AE1C92E91E0D92ED6
:101A300040E050E0E60179906E01672D62956F708D
:101A400070E0EB01E8A06D917C911197F12CD72DFE
:101A5000DF7002C0F594E794DA95E2F7E0FC08C085
:101A60007801042E02C0EE0CFF1C0A94E2F702C0BB
:101A7000E12CF12C6E297F2911967C936E934F5F98
:101A80005F4F4F305105B1F691A1392331A392A197
:101A9000892B82A3129681E0F50140815181841641
:101AA000950609F480E0282BF1E0A934BF0709F07E
:101AB0009ACF45E065E371E08FE391E00E947E0DEF
:101AC0000E94D80681E0DF91CF911F910F91FF9086
:101AD000EF90DF90CF90BF90AF909F908F907F90CE
:101AE0005F904F900895E82FF0E0EE0FFF1FEB5C42
:101AF000FE4F80819181089508950895FF920F937C
:101B00001F93CF93DF93F82E092F162FD72FC42FB3
:101B1000222349F081E080934B010E94AE219093F3
:101B20004A018093490180914B018823B9F080914B
:101B3000490190914A010E94BA21069778F0EF2D51
:101B4000F02FA12FBD2F80E08C1731F02191319122
:101B50002D933D938F5FF8CF10924B01DF91CF9182
:101B60001F910F91FF900895EF92FF920F931F9393
:101B7000CF93DF93E901423E08F041EE662309F47A
:101B80004BC0242F30E0EFEFF0E0E61BF109B90184
:101B9000E69F9001E79F300DF69F300D1124232F13
:101BA0008B01031B11095CE3E52EF12CB7010E94A8
:101BB0004D2EFB01BC01069FC001079F900D169F93
:101BC000900D1124B7010E944D2EE230F105B1F0C5
:101BD00040F4309779F0319711F5832F242F461B6D
:101BE00021C0E430F105A1F068F03597C1F4842FED
:101BF000861B18C0832F262F230F14C0862F830F18
:101C0000E42F03C0E42FE61B842F432F2E2F0AC09E
:101C1000842F462F430F06C0842F242F03C080E05B
:101C200020E040E0E42FF0E0E45FF44F4491E22F45
:101C3000F0E0E45FF44F9491E82FF0E0E45FF44FBC
:101C4000E49149839883EA83DF91CF911F910F91AB
:101C5000FF90EF90089588E090E00C94CC2ECF9206
:101C6000DF92EF92FF926B017C010E942B0E6C15AC
:101C70007D058E059F0551F0B701A60188E090E033
:101C8000FF90EF90DF90CF900C94EA2EFF90EF90B2
:101C9000DF90CF900895E8E3F2E083E08083109234
:101CA00039028FEF828381EE838314826081718198
:101CB000828193810C942F0E8091380280FF03C0A3
:101CC00086958F73089580E0089580913C0290E09E
:101CD00001968430910514F083E090E080933C02FB
:101CE000609138027091390280913A0290913B02E2
:101CF0000C942F0E80913C0290E0019797FF02C058
:101D000080E090E08430910514F083E090E08093CF
:101D10003C02609138027091390280913A029091B0
:101D20003B020C942F0E8091380280FF06C060E1C8
:101D300070E08DE392E00C947E1480E090E0FC0172
:101D4000E35CFD4F1182108212820396803391056D
:101D5000B1F7EDCF9091380290FF0FC020E030E056
:101D6000F901E35CFD4F8183608342832D5F3F4F28
:101D700020333105A9F70C94930E0895CF93DF9388
:101D800000D01F92CDB7DEB72091380220FF0AC0E5
:101D90009E012F5F3F4F0E94B40D4B8169818A8164
:101DA0000E94AA0E0F900F900F90DF91CF9108958F
:101DB0005F926F927F928F929F92AF92BF92CF92DB
:101DC000DF92EF92FF920F931F93CF93DF9300D098
:101DD0001F92CDB7DEB78C01E62EF42E522E8091E5
:101DE000380280FF8BC0982F9E77923061F49E015D
:101DF0002F5F3F4FC8010E94B40D4B8169818A81DA
:101E00000E94AA0E5BC0E82FE695EF739EE39E0F3B
:101E10009F73943018F4F0903B0250C09AE39E0FE9
:101E20009F73993068F4881F8827881F9091390222
:101E3000292F220F022F082B97FB112710F93EC0E4
:101E400087E28E0F8F738A30C8F5F0E07997E0FD56
:101E500002C021E001C02FEFEE7FEE5FF44F8591CD
:101E60009491AC0184E0569547958A95E1F7240357
:101E70004001259F900C1124580188E9A81A8EEF83
:101E8000B80A9DE3C92E92E0D92E28E6622E772467
:101E90007394C501B3010E944D2E96014F2D6E2DF6
:101EA0000E94B40DA80CB91C83E0C80ED11C8DE6AD
:101EB000C81682E0D80669F70E94930E8091380216
:101EC00000FB87F980933802902F96958091390214
:101ED0008078892B10FB87F980933902E0923A02CF
:101EE000F0923B02552051F0609138027091390216
:101EF00080913A0290913B020E942F0E0F900F901A
:101F00000F90DF91CF911F910F91FF90EF90DF9095
:101F1000CF90BF90AF909F908F907F906F905F9089
:101F20000895282FE8E3F2E09081991F9927991FDF
:101F300030913902832F880F482F492B37FB5527C3
:101F400050F9CA01089668E671E00E94612E43814B
:101F500062810C94D80E81E00C94910F282F9091FF
:101F60003802991F9927991F30913902832F880FC2
:101F7000482F492B37FB552750F9CA0148305105E6
:101F80001CF4805A9E4F01C0089768E671E00E94D9
:101F9000612E40913B0260913A020C94D80E81E090
:101FA0000C94AE0F60913A02262F30E0283F3105A5
:101FB00014F4685F01C06FEF30913802331F33278C
:101FC000331F90913902592F550F97FB992790F99C
:101FD000282F40913B02852F832B0C94D80E81E053
:101FE0000C94D20F60913A02262F30E02830310550
:101FF00014F0685001C060E030913802331F33277D
:10200000331F90913902592F550F97FB992790F95B
:10201000282F40913B02852F832B0C94D80E81E012
:102020000C94F20F40913B02242F30E02A3D310501
:1020300014F4485F01C041EE30913802331F33275A
:10204000331F90913902592F550F97FB992790F91B
:10205000282F60913A02852F832B0C94D80E81E0B3
:102060000C94121040913B02242F30E028303105AF
:1020700014F0485001C040E030913802331F33273C
:10208000331F90913902592F550F97FB992790F9DB
:10209000282F60913A02852F832B0C94D80E81E073
:1020A0000C94321020E00C94D80ECF93909138020B
:1020B00090FF40C09178811102C0926007C08532C4
:1020C00010F0986403C08F73880F982B9093380298
:1020D000662351F0609138027091390280913A0282
:1020E00090913B020E942F0EC09138026C2F669592
:1020F0006F7370E04BE050E082E091E00E94B72EF9
:10210000892B19F01092690103C081E08093690165
:10211000CC1FCC27CC1F90913902892F880F97FBB9
:10212000992790F940913B0260913A028C2BCF9114
:102130000C945210CF910895682F90913802969583
:102140009F7381E0890F853208F081E00C9455106F
:1021500081E00C949C10682F9091380296959F73A3
:102160008FEF890F09F484E20C94551081E00C94F0
:10217000AB1061E00C945510E8E3F2E080818160DF
:10218000808386958F730C94B91060E00C94551081
:10219000809113028160809313020E9412208111AA
:1021A00004C00E9493200E944B0E0E942B0E60934D
:1021B00038027093390280933A0290933B026E7713
:1021C00061F40E944B0E0E942B0E609338027093B4
:1021D000390280933A0290933B0281E08093690137
:1021E0008091380280FF04C086958F730C94C510CF
:1021F0000895E8E3F2E080818E7F808360817181C1
:10220000828193810E942F0E109269012FEF80E747
:1022100092E0215080409040E1F700C000000C9413
:10222000930E8091380280FD0C94F9100C94BC1030
:10223000CF93C82F80916701909168010E94BA21C5
:10224000EC2FF0E0E250F54FE491F0E08E179F079D
:1022500008F443C00E94AE21909368018093670107
:102260006091660170E080E090E00E943E2C20E0EA
:1022700030E04FE753E40E94612B2BED3FE049E44F
:1022800050E40E94672D0E94D42D0E94DB2B2BE48A
:102290003AE34EE25FE30E94F42A20EF3BEF48ED81
:1022A00052E40E94672D0E940D2C462F8091380227
:1022B000881F8827881F90913902292F220F97FBAA
:1022C000992790F960913A02822B0E94BE0E80916C
:1022D000660190E0019680936601CF910895CF93B7
:1022E000C82F80916401909165010E94BA21EC2F62
:1022F000F0E0E550F54FE491F0E08E179F07E8F02D
:102300000E94AE21909365018093640140913B024D
:1023100060913A0280916201909163010E94BE0E29
:102320008091620190916301019668E671E00E94DC
:102330004D2E9093630180936201CF910895CF92C7
:10234000DF92FF920F931F93CF93DF93F82E80912C
:102350006001909161010E94BA21EF2DE695F0E0B5
:10236000E850F54FE491F0E08E179F07F0F10E94DE
:10237000AE2190936101809360010DE312E0C0E013
:10238000D0E088E6C82EDD24D39480915E01909140
:102390005F018C0F9D1FB6010E944D2E9801409148
:1023A0003B0260913A020E94B40D66960D5F1F4F8A
:1023B000C03681E0D80749F70E94930E20915E0154
:1023C00030915F01F0FE0BC0C901019668E671E033
:1023D0000E944D2E90935F0180935E0106C02150B4
:1023E000310930935F0120935E01DF91CF911F91FE
:1023F0000F91FF90DF90CF900895AF92BF92CF9250
:10240000DF92EF92FF920F931F93CF93DF93C82F2A
:1024100080FF02C01FEF01C011E080915C0190912C
:102420005D010E94BA21C695EC2FF0E0EB50F54F0C
:10243000E491F0E08E179F0708F465C00E94AE217A
:1024400090935D0180935C012DE3C22E22E0D22E99
:102450003FE3E32E32E0F32EC0E0D0E0F701319706
:102460001082F6011082F701108294E0A92EB12C9F
:1024700000E080915B01800F87FD805F082E000CDB
:10248000990BC817D907E9F480913B028A9DA001F6
:102490008B9D500D112455954795559547958091E5
:1024A0003802881F8827881F90913902592F550FAD
:1024B00097FB992790F9960160913A02852B0E942B
:1024C000B40D010FF1E0AF1AB10899F6219683E03F
:1024D000C80ED11CE3E0EE0EF11CC031D10509F0AD
:1024E000BDCF0E94930E80915B01113031F48111B8
:1024F00002C08FE006C0815004C090E001968F704A
:10250000992780935B01DF91CF911F910F91FF90ED
:10251000EF90DF90CF90BF90AF900895EF92FF9231
:102520000F931F93CF93DF93C82F80915901909100
:102530005A010E94BA21EC2FF0E0EE50F54FE491E1
:10254000F0E08E179F0708F464C00E94AE219093BC
:102550005A018093590180E090E0FC01E35CFD4F5B
:10256000118210821282039680339105B1F78DE3B8
:10257000E82E82E0F82E0FE312E0C0E0D0E0809178
:102580005801082E000C990BC817D907ECF0809160
:102590000101082E000C990B8C179D07ACF080915F
:1025A0003802881F8827881F90913902592F550FAC
:1025B00097FB992790F9970140913B0260913A026D
:1025C000852B0E94B40D07C0F80131971082F701E6
:1025D0001082F80110822196F3E0EF0EF11C0D5FDE
:1025E0001F4FC031D10559F60E94930E8091000112
:1025F00090915801980F9093580120910101280F54
:1026000020930101121614F49F301CF081958093E1
:102610000001DF91CF911F910F91FF90EF900895EE
:10262000EF92FF920F931F93CF93DF938091560108
:10263000909157010E94BA21883E9340D0F10E94A8
:10264000AE219093570180935601C0915401D091CF
:1026500055012196C170DD27D0935501C0935401D7
:102660008DE3E82E82E0F82E10E008E7812F8695B2
:10267000FE01E80FF11DCF0181709927970140916C
:102680003B0260913A02FC010E9FC0010F9F900D2A
:1026900011240E94B40D1F5FF3E0EF0EF11C103106
:1026A00029F7DF91CF911F910F91FF90EF900C943C
:1026B000930EDF91CF911F910F91FF90EF900895AE
:1026C000CF93DF9300D01F92CDB7DEB78091520138
:1026D000909153010E94BA21E0EFFAE025913491E4
:1026E00082179307C0F18091510181110CC09E01A6
:1026F0002F5F3F4F41EE6FEF80E090E00E94B40DFE
:102700008A81809351010E94AE219093530180935E
:10271000520180915001813051F028F0823061F4F3
:10272000409151010AC08091510140E007C0609181
:10273000510140E080E003C040E080E060E00E94A2
:10274000AA0E8091500190E0019663E070E00E9433
:10275000612E809350010F900F900F90DF91CF91D9
:1027600008950F931F93CF93DF9380914E01909123
:102770004F010E94BA21843F914008F448C00E9452
:10278000AE2190934F0180934E01CDE3D2E000E063
:1027900010E020914C0130914D01809138029091D0
:1027A0003902083011051CF4232B79F002C0232BC9
:1027B00061F4881F8827881F592F550F97FB992789
:1027C00090F99E0140913B020AC0881F8827881F0C
:1027D000592F550F97FB992790F99E0140E0609182
:1027E0003A02852B0E94B40D0F5F1F4F23960031D4
:1027F000110579F60E94930E80914C0190914D0144
:1028000001968170992790934D0180934C01DF913F
:10281000CF911F910F910895809169018823D9F17B
:1028200090913802892F86958F732EE3280F2F738E
:10283000243018F482500C9418112AE3280F2F73B7
:10284000233018F486500C946F1127E3280F2F7350
:10285000263018F489500C949F1121E3280F2F7310
:10286000263018F48F500C94FD112BE2280F2F7393
:10287000233018F485510C948E12892F8E77803373
:1028800011F40C941013863411F40C9460138834F2
:1028900011F40C94B11308952EB1342F30952323E5
:1028A0003EB1432B3FB7F894FC01680F791FE61740
:1028B000F70789F0819198E04EB9000000C087FFCA
:1028C0002EB9880F000000C000C000C02EB900C0A3
:1028D0009A9591F7ECCF3FBF08952DB1242B2DB9D8
:1028E0009B01220F331F620F731F0E944C1487EC51
:1028F00090E00197F1F700C00000089544E00C94C7
:102900006D1490936F0180936E010895E0916E01B4
:10291000F0916F01309721F00190F081E02D099442
:1029200080E00895E0916E01F0916F01309799F089
:1029300020911901222359F02091710227FF07C02D
:10294000DC012C9111962C93119725E02C93028099
:10295000F381E02D0994089520916C0130916D016F
:102960008217930771F090936D0180936C01E09151
:102970006E01F0916F01309721F00680F781E02D14
:102980000994089520916A0130916B018217930791
:1029900071F090936B0180936A01E0916E01F09168
:1029A0006F01309721F00084F185E02D099408959E
:1029B00085B7806885BF85B7806885BF089508950D
:1029C0000E94D8140C94DF1481E008950E94A52180
:1029D0000E94910C0E947A220E94A3230C94C8109A
:1029E0004F925F927F928F929F92AF92BF92CF92BF
:1029F000DF92EF92FF920F931F93CF93DF93CDB7A8
:102A0000DEB72A970FB6F894DEBF0FBECDBF0E9487
:102A1000DB0C0E94E414811111C08FEF89838A833B
:102A20001B820E94AE218160782F9D838C83498117
:102A30005A816B818D810E94AC1557C091E7C92ED8
:102A400091E0D92E00E010E0AA24A394B12C702EBE
:102A5000802F0E94730D4C01F601419051906F013F
:102A6000482659264114510431F40F5F1F4F053099
:102A7000110569F7D2CF8091130281FD0E947C0D70
:102A800020E030E07501022E02C0EE0CFF1C0A941B
:102A9000E2F7C70184219521892B09F12E837F82DA
:102AA0008E209F2091E0892809F490E098870E9469
:102AB000AE218160782F9A8789874E815F816885F2
:102AC0008A850E94AC15000F111FF801EF58FE4FC8
:102AD00080819181E826F926F182E08206C02F5F8D
:102AE0003F4F2F30310571F6C0CF109170010E9419
:102AF00086141817D9F00E948614809370012A96C4
:102B00000FB6F894DEBF0FBECDBFDF91CF911F91FE
:102B10000F91FF90EF90DF90CF90BF90AF909F907C
:102B20008F907F905F904F900C9452072A960FB62B
:102B3000F894DEBF0FBECDBFDF91CF911F910F91F3
:102B4000FF90EF90DF90CF90BF90AF909F908F90CD
:102B50007F905F904F900895CF93DF93CDB7DEB70E
:102B60002B970FB6F894DEBF0FBECDBF4F835887AB
:102B700069877A878B87DE01119686E0FD011192C5
:102B80008A95E9F785E0FE01379601900D928A95C6
:102B9000E1F749815A816B817C818D819E810E9400
:102BA0007A1C2B960FB6F894DEBF0FBECDBFDF9117
:102BB000CF910895FC01808191810E94441F089566
:102BC000882309F413C1682F8238C1F40E94861447
:102BD00081FD0CC169E380910D0190910E010E946D
:102BE000FA200E94A31F2FEF81EE94E02150804035
:102BF0009040E1F700C0000069E319C08338F9F4A0
:102C00000E94861480FDF2C063E580910D019091D1
:102C10000E010E94FA200E94A31F2FEF81EE94E084
:102C2000215080409040E1F700C0000063E58091B2
:102C30000D0190910E010E9405210C94A31F843870
:102C4000C1F40E94861482FDD1C067E480910D0119
:102C500090910E010E94FA200E94A31F2FEF81EE97
:102C600094E0215080409040E1F700C0000067E40C
:102C7000DECF8CEF860F813A38F480910D01909170
:102C80000E010E94FA20D9CF80E2860F883048F4E6
:102C9000677081E001C0880F6A95EAF70E94D91F2A
:102CA000CCCF8BE5860F833070F4653A29F0663A15
:102CB00031F083E890E005C081E890E002C082E84E
:102CC00090E00C94AC1488E5860F873108F08EC034
:102CD000683A09F445C0693A09F445C06A3A09F40A
:102CE00045C06B3A09F445C06C3A09F445C06B3BEA
:102CF00009F445C06C3B09F445C06D3A09F445C080
:102D0000603B09F445C06E3A09F445C06F3A09F4D6
:102D100045C0613B09F445C0623B09F445C0633BD3
:102D200009F445C0643B09F445C0653B09F445C05E
:102D3000663B09F445C0673B09F445C0683B09F4AC
:102D400045C0693B09F445C06D3B09F445C06E3B85
:102D500009F445C06A3B09F445C080E090E044C0F6
:102D600082EE90E041C089EE90E03EC08AEE90E0B5
:102D70003BC085EB90E038C086EB90E035C083EB3C
:102D800090E032C084EB90E02FC087EB90E02CC045
:102D90008CEC90E029C08DEC90E026C083E891E0B7
:102DA00023C08AE891E020C082E991E01DC084E957
:102DB00091E01AC081E292E017C083E292E014C071
:102DC00084E292E011C085E292E00EC086E292E0D9
:102DD0000BC087E292E008C08FE690E005C080E774
:102DE00090E002C08AE292E00C94C2140895882315
:102DF00009F45BC0682F823879F40E94861481FF41
:102E000054C069E380910D0190910E010E94FA2057
:102E10000E94A31F69E310C08338B1F40E94861496
:102E200080FF43C063E580910D0190910E010E94E7
:102E3000FA200E94A31F63E580910D0190910E017D
:102E40000E9405210C94A31F843879F40E948614F3
:102E500082FF2BC067E480910D0190910E010E94CA
:102E6000FA200E94A31F67E4E7CF8CEF860F813A18
:102E700018F380E2860F883048F4677081E001C063
:102E8000880F6A95EAF70E94DF1FDCCF8BE5860F7B
:102E9000833020F480E090E00C94AC14685A6731E1
:102EA00020F480E090E00C94C2140895882321F06F
:102EB0000E94D91F0C94A31F0895882321F00E941B
:102EC000DF1F0C94A31F08954F925F926F927F9221
:102ED000BF92CF92DF92EF92FF920F931F93CF9307
:102EE000DF937C01D62FC72FFC01058102950F705F
:102EF000128111110E94F61F0E949C1F882379F0F5
:102F0000112369F080E28D0F883048F082E00E9442
:102F1000851F0E949C1F91E0B82EB92601C0B12CDC
:102F2000CC2EC2948FE0C822D12CF601E859FF4F75
:102F30000C94972E8C2F807FCF70882311F0C29530
:102F4000C07F112399F0CC2309F46EC180E28D0F6C
:102F5000883010F0D11104C08C2F0E94D91F03C0FB
:102F60008C2F0E94E91F0E94A31F5EC18D2F0E941B
:102F7000F716CC2309F4A1C180E28D0F883010F040
:102F8000D11104C08C2F0E94DF1F03C08C2F0E9420
:102F9000EF1F0E94A31F91C18C2F807FCF708032C2
:102FA00011F0C295C07FDD2319F0D130C9F022C0E5
:102FB000112371F0002341F0013031F40E940F2001
:102FC0008C2B0E94092079C10E940F208C2BE4C019
:102FD000002319F0013009F470C10E940C2018C0C0
:102FE000112321F0063008F068C10EC0053008F04A
:102FF00064C10EC0112351F0002331F0F701858127
:1030000080FF12C18F7085838C2FC6C001111DC136
:103010008C2FC8C08C2F837009F050C0111159C17A
:103020008D2F829586958770880F880F9D2F9F70B2
:10303000492E512C612C712C082E04C0440C551CB7
:10304000661C771C0A94D2F7D4FF14C00FE010E07E
:1030500020E030E0B901A80104C0440F551F661FED
:10306000771F8A95D2F7CB01BA016095709580954C
:10307000909503C060E070E0CB01C695C695C37023
:10308000D0E0C230D10561F0C330D10581F06429B0
:10309000752986299729219771F00E94BF1D19C1B2
:1030A00064297529862997290E94D11D12C10E9481
:1030B000BF1DC301B2010E94AD1D0BC1112319F048
:1030C0008C2F817001C08695882309F402C18D2F51
:1030D000829586958770880F880F9D2F9F70492E47
:1030E000512C612C712C082E04C0440C551C661CFC
:1030F000771C0A94D2F7D4FF14C00FE010E020E050
:1031000030E0B901A80104C0440F551F661F771FA6
:103110008A95D2F7CB01BA0160957095809590950C
:1031200003C060E070E0CB01C695C695C3704C2F1C
:1031300050E04230510569F04330510589F064296F
:103140007529862997294130510571F00E94851E05
:10315000C0C064297529862997290E94971EB9C085
:103160000E94851EC301B2010E94731EB2C08D2F42
:1031700090E0FC01E05EF109E531F10508F050C096
:10318000E858FF4F0C94972EDF708C2F8F7111230E
:1031900031F00E940C1E8D2F0E9456178EC00E9487
:1031A0002D1E8D2F0E945D1788C0112341F0053020
:1031B00008F083C08C2F8F710E94521E7EC0063093
:1031C00008F07BC0F7CF112339F08C2F8F710E944C
:1031D0000C1E73C01123C9F38C2F8F710E942D1EFA
:1031E0006CC0112329F08C2F8F710E94F71D65C0D0
:1031F0000E94F21D62C0112349F0CF718C2F0E94F2
:103200000C1E63E08C2F0E947C1F57C081E00E943F
:10321000851F023008F451C082E00E94851F4DC016
:10322000112331F0002389F28D2F0E94E01545C053
:10323000002391F2D93349F45FEF67EE73E0515008
:1032400060407040E1F700C000008D2F0E94F7162B
:1032500034C04C2F4F706D2FC7010E94C6060E94CC
:103260001E1D3BC0111139C0CF70D0E0C230D10556
:1032700099F03CF4209769F02197F9F40E94DD233E
:103280002CC0C430D10571F054F02597B1F480E022
:103290000AC00E94C02321C00E941C241EC00E949C
:1032A00023241BC089E00E94462417C04C2F4F7076
:1032B0006D2FC7010E94E20910C088E0C816D10432
:1032C00041F05CF0EAE0CE1AD108F2E0CF16D1046A
:1032D00020F40E9486140E945207BB20F1F00E9445
:1032E000781F80FD1AC0F70112820E94721F0E948F
:1032F0000C1EC7010E949B190E94721FDF91CF9183
:103300001F910F91FF90EF90DF90CF90BF907F9033
:103310006F905F904F900C942D1EDF91CF911F9175
:103320000F91FF90EF90DF90CF90BF907F906F90C4
:103330005F904F9008950F931F93CF93DF93EC010D
:10334000888199812B813C81232BB9F09F3F11F417
:103350008F3F99F0CE010E946407882371F0688145
:1033600079818A810E944F1F8C010E94A91E0E94B0
:10337000AA1DB801CE010E946417DF91CF911F9161
:103380000F9108950E94F61F0E9406200C94A31F1F
:1033900080910D0190910E010E9410210C94C21990
:1033A0000E94E61F0C94C819E92FE295EF70F0E037
:1033B0003297EE30F105B0F4E357FF4F0C94972E9F
:1033C000803F91F018F4803E68F40EC0843F51F4C1
:1033D0000BC0803E48F0813F29F406C093FB88274C
:1033E00080F9089580E0089581E008950E94441FC7
:1033F0000E94D4190895CF93DF9300D000D01F927C
:10340000CDB7DEB70F900F900F900F900F90DF9118
:10341000CF910895CF93DF9300D000D000D0CDB7E7
:10342000DEB726960FB6F894DEBF0FBECDBFDF9194
:10343000CF9108951F93CF93DF93C0917C0116E045
:1034400080917D01C81799F0D0E01C9FF0011D9F6D
:10345000F00D1124E258FE4F408151816281738149
:10346000848195810E940A1A2196C770E9CFDF9165
:10347000CF911F9108954091AE015091AF0160919D
:10348000B0017091B1018091B2019091B3010C949F
:103490000A1A8091B30182958F7009F054C080910F
:1034A000B001882309F44FC080917C01A0917D0177
:1034B0006091AE017091AF014091B1015091B201A4
:1034C000B6E08A1709F43FC090E041155105C1F1FB
:1034D0007F3F11F46F3FA1F1B89FF001B99FF00D4C
:1034E0001124E258FE4F218172132AC020816213F9
:1034F00027C02281211124C023813481241735075C
:1035000010F421503109241B350B283C3105C0F43F
:103510002091B3012F7020612093B30126E0289FF2
:10352000F001299FF00D1124ED57FE4F80818F701F
:10353000806180838EEA91E00E949B190C941A1A94
:1035400001968770BECF0895CF92DF92EF92FF92DF
:103550000F931F93CF93DF93CDB7DEB762970FB66C
:10356000F894DEBF0FBECDBF8C0185E0F801DE010F
:103570001D9601900D928A95E1F7D8014C91119614
:103580005C91119712966C9112971396CD90DC90E6
:1035900014973091AE017091AF018091B10190917B
:1035A000B201009709F46BC17F3F19F43F3F09F462
:1035B00066C1E090B001EE2009F4C0C02091B301D3
:1035C000C816D90628F0F601E81BF90BCF0104C094
:1035D000809590958C0D9D1DFF24F394883C91055A
:1035E00078F0F12C207F09F0C6C07C2DD98AC88ADA
:1035F00089890E94FB198EEA91E00E949B19B1C053
:10360000822F807F09F046C0751314C0341312C096
:10361000611110C02F7020612093B3010E943B1AEA
:103620008EEA91E00E949B198091B301D801159612
:103630008C932EC0CD2819F15F3F11F44F3FF9F064
:10364000F62E61111CC080917C0120917D0136E035
:10365000821709F45AC090E0389FF001399FF00DAD
:103660001124E258FE4F7181571306C07081471331
:1036700003C07281711103C001968770E9CFF62EE5
:10368000662309F427C18091B30181608093B3015F
:10369000F12C20C1751308C0341306C0611104C099
:1036A0008091B301D801C3C04D875E878D859E850B
:1036B0006A8B0E94F6196A898823E1F16623D1F1A9
:1036C0002091B301822F82958F7090E0029774F061
:1036D0008091AE019091AF0198878F831986DB8628
:1036E000CA862C87CE0107960E949B1986E0F801B6
:1036F000AEEAB1E001900D928A95E1F70E94491A75
:103700000E943B1AFF24F394E5C04D875E878D85A8
:103710009E850E94441F292F22952F7030E0223071
:1037200031050CF0CBC09F7009F0C5C0805E8830B9
:1037300008F4D0C0C8010E949B19E4CFC816D9066E
:1037400008F453C0F601E81BF90BCF01883C910542
:1037500008F450C0F12C7C2DD98AC88A89890E942E
:10376000FB19EEEAF1E086E0DF011D928A95E9F7A8
:103770000E943B1AAFC0751314C0341312C06111FC
:1037800010C08091B301F8018583C8010E949B1984
:1037900086E0EEEAF1E0DF011D928A95E9F7FE2C62
:1037A00099C04D875E878D859E856A8B0E94F6192C
:1037B0006A89882309F4BECF662309F4BBCF209120
:1037C000B301822F82958F7090E002970CF48ECF18
:1037D0008091AE019091AF019A8389831B82DD8233
:1037E000CC822E83CE0101967FCF809590958C0D53
:1037F0009D1DACCFF62E662309F49CCF75132EC009
:1038000034132CC02091B30120FD1FC0822F82955C
:103810008F70D9F0D80115962C9315978F3049F0F9
:103820008F5F982F9295907F822F8F70892B15969E
:103830008C93C8010E949B1986E0F801AEEAB1E0C2
:1038400001900D928A95E1F793CF86E0F801AEEAF8
:10385000B1E001900D928A95E1F73CC04D875E87FB
:103860008D859E850E94F619811140CF8091B3010C
:1038700081608093B301C8010E949B192BC066230D
:1038800009F458CF4D875E878D859E850E94F61975
:10389000F82E882309F44ECF86E0F801AEEAB1E0B5
:1038A00001900D928A95E1F78EEA91E00E94DA1577
:1038B0000E94491A5DCF811139CF0CC024303105E7
:1038C0000CF038CF9F7009F431CFF8019581907FCB
:1038D00009F02CCF8F2D62960FB6F894DEBF0FBE85
:1038E000CDBFDF91CF911F910F91FF90EF90DF90AF
:1038F000CF9008951F93CF93DF93CDB7DEB72C976A
:103900000FB6F894DEBF0FBECDBF4F8358876987CF
:103910007A878B879C87CE0107960E94A41A8823FA
:1039200069F08F8198852A853B85232BF1F19F3F94
:1039300009F063C08F3F09F060C037C086E0FE0128
:103940003796DE01119601900D928A95E1F76F810D
:103950007885EA85FB85309741F17F3F11F46F3F11
:1039600021F120917D0130E0C901019687709927EE
:1039700040917C0150E08417950709F447C06983A2
:103980007A83FD83EC8396E0929FD001939FB00DE4
:103990001124A258BE4FFE01319601900D929A95C6
:1039A000E1F780937D010E941A1A16E080917C0154
:1039B00090917D018917C1F1189FC001112482588F
:1039C0009E4F0E94A41A882379F1E0917C011E9FEA
:1039D000F0011124E258FE4F4081518162817381D0
:1039E000848195810E940A1A80917C0190E0019661
:1039F0008770992780937C01D9CF4F81588569853D
:103A00007A858B859C850E940A1ACFCF0E94D01997
:103A100010927D0110927C01EEEAF1E086E0DF0178
:103A20001D928A95E9F7C1CF2C960FB6F894DEBFA8
:103A30000FBECDBFDF91CF911F910895EF92FF92FE
:103A40000F931F93CF93DF938C01892B09F46CC0E4
:103A5000F12CEE24E394E8012196F8018491843757
:103A600040F4843008F051C0813081F0823019F187
:103A70005BC0853709F444C0A8F19CE7980F9037E4
:103A800008F052C08F770E94F71641C00E5F1F4F9B
:103A9000FE01C49180E28C0F883048F4C7708E2DEF
:103AA00001C0880FCA95EAF70E94F91F14C08C2F35
:103AB0000E94E0152DC00E5F1F4FFE01C49180E2F1
:103AC0008C0F883058F4C7708E2D01C0880FCA95AE
:103AD000EAF70E94FF1F0E94A31F1AC08C2F0E94AA
:103AE000F71616C00E5F1F4FFE01C491CC2381F064
:103AF0008FE99FE00197F1F700C00000C150F6CFB9
:103B00000E5F1F4FFE01F49003C00E94E0158E016E
:103B10008F2D882309F49FCFEFE9FFE03197F1F76C
:103B200000C000008150F5CFDF91CF911F910F9120
:103B3000FF90EF90089508950C949B1D0E949C1D8A
:103B40006093EA017093EB018093EC019093ED0197
:103B50000C94C21908950C949E1D0F931F9300910D
:103B6000EA011091EB012091EC013091ED01602B05
:103B7000712B822B932B1F910F910C949E1D0F93F1
:103B80001F930091EA011091EB012091EC0130911B
:103B9000ED0160237123822393231F910F910C94D5
:103BA0009E1D0F931F930091EA011091EB0120914C
:103BB000EC013091ED0160277127822793271F9137
:103BC0000F910C949E1D08950C94E31D0E94E41D1A
:103BD0006093E6017093E7018093E8019093E90117
:103BE0000C94C21960E070E0CB010C94E61D0F93B9
:103BF0001F9341E050E060E070E08A019B0104C047
:103C0000000F111F221F331F8A95D2F7C901B80177
:103C10001F910F910C94E61D0F931F9341E050E00C
:103C200060E070E004C0440F551F661F771F8A953F
:103C3000D2F78091E6019091E701A091E801B0915F
:103C4000E9018A019B01082B192B2A2B3B2BC90167
:103C5000B8011F910F910C94E61D0F931F9341E043
:103C600050E060E070E004C0440F551F661F771FEE
:103C70008A95D2F740955095609570958091E601B0
:103C80009091E701A091E801B091E9018A019B01BF
:103C9000082319232A233B23C901B8011F910F913F
:103CA0000C94E61D0F931F9341E050E060E070E03C
:103CB00004C0440F551F661F771F8A95D2F7809165
:103CC000E6019091E701A091E801B091E9018A0134
:103CD0009B01082719272A273B27C901B8011F91F3
:103CE0000F910C94E61D0F931F930091E601109124
:103CF000E7012091E8013091E901602B712B822BC3
:103D0000932B1F910F910C94E61D0F931F9300911D
:103D1000E6011091E7012091E8013091E90160236B
:103D20007123822393231F910F910C94E61D0F930F
:103D30001F930091E6011091E7012091E801309175
:103D4000E90160277127822793271F910F910C9417
:103D5000E61D08952FE0929F800D1124A82FA695AF
:103D6000A695A695877051E001C0550F8A95EAF790
:103D700085E0A89FD001112420E030E070E0F90137
:103D8000EA0FFB1FEC54FE4F4081CB01022E02C014
:103D9000969587950A94E2F78170992781958427F3
:103DA0008523842780832F5F3F4F2530310539F7E6
:103DB00008952FE0929F800D1124682F66956695D7
:103DC0006695982F977085E0689FB001112440E0B8
:103DD00050E080E0FA01E60FF71FEC54FE4F20811F
:103DE00030E0092E02C0369527950A94E2F721703B
:103DF0003327042E01C0220F0A94EAF7822B4F5F6B
:103E00005F4F4530510531F70895CF92DF92EF9221
:103E1000FF920F931F93CF93DF938C01C090EA0121
:103E2000D090EB01E090EC01F090ED018091E60183
:103E30009091E701A091E801B091E901C82AD92A3F
:103E4000EA2AFB2ACFE1D0E0D701C6010C2E04C03C
:103E5000B695A795979587950A94D2F780FF06C0E7
:103E6000B8018C2F0E94FD09019721F4219760F77A
:103E700080E001C08C2FDF91CF911F910F91FF90B7
:103E8000EF90DF90CF900895CF93DF93EC010E94E5
:103E9000051FBE010E94FD09DF91CF9108951F9378
:103EA000CF93DF93EB0190917B01992321F0CB011C
:103EB0000E94441F13C0882349F0CB010E94051FB4
:103EC000182F682FCE010E94AA1E04C0CB010E94A9
:103ED000D91E182FBE01812F0E94FD09DF91CF91BD
:103EE0001F9108958091EE0185958595859508959A
:103EF0008091EE018770089598E0899F90011124C8
:103F0000262B2093EE010C940C1E2091EE0180953F
:103F100082238093EE01982F977069F430E0482F48
:103F2000082E000C550B2417350729F0859585952B
:103F300085950C942D1E08959091EE01977081E067
:103F400009F480E00895E0910D01F0910E01809157
:103F500012028083E0910D01F0910E019081809119
:103F60001102892B8083E0910D01F0910E01908167
:103F700080911002892B80838091EF01882381F04A
:103F8000E0910D01F0910E019081892B8083809149
:103F90000D0190910E010E94952081111092EF0168
:103FA00080910D0190910E010C9492148091120257
:103FB000089590911202892B8093120208958095A2
:103FC0009091120289238093120208951092120296
:103FD000089590911102892B809311020895809584
:103FE0009091110289238093110208951092110279
:103FF000089590911002892B809310020895809566
:10400000909110028923809310020895109210025B
:1040100008958093EF0108951092EF010895809123
:10402000EF01089580E090E00E94D22E21E08D3EC5
:104030009E4F09F020E0822F089582E090E00C94DA
:10404000C42E682F82E090E00C94D82E83E090E09C
:104050000C94C42E682F83E090E00C94D82E84E05A
:1040600090E00C94C42E682F84E090E00C94D82E3D
:1040700086E090E00C94C42E682F86E090E00C94CB
:10408000D82EAB01BC018FE090E00C94EA2EAB017E
:10409000BC0183E190E00C94EA2E60E070E0CB017B
:1040A0000C94472060E070E0CB010E9441200C940A
:1040B0004D206DEE7EEF80E090E00E94F62E60E0F5
:1040C00082E090E00E94D82E60E083E090E00E94C1
:1040D000D82E1092EA011092EB011092EC0110928E
:1040E000ED0160E084E090E00E94D82E60E085E081
:1040F00090E00E94D82E60E086E090E00E94D82EEA
:104100006FEF87E090E00E94D82E40E050E0BA01C7
:1041100088E090E00E94EA2E60E08DE090E00E944E
:10412000D82E0C9452200C945920FC013296809188
:104130001901882331F08091710287FF02C09EE14E
:1041400001C096E080E0915028F021912223D9F31C
:104150008F5FF9CF08959C01FC0132969FEF80E0BC
:104160004191461789F09F3F19F4411101C0982FE2
:104170008F5F8630A9F79F3F39F0F901E90FF11DF4
:1041800097FDFA95628308950895FC01329608968A
:104190002081261301C010823196E817F907C1F774
:1041A0000895262F2695269526952E3168F4FC0134
:1041B000E20FF11D677021E030E001C0220F6A9527
:1041C000EAF78281282B22830895262F26952695AB
:1041D00026952E3170F4FC01E20FF11D677021E08D
:1041E00030E001C0220F6A95EAF7209582812823EA
:1041F0002283089520911901222329F02091710230
:1042000027FD0C94D1200C94AB202091190122237E
:1042100029F02091710227FD0C94E5200C94C52013
:1042200020911901FC013296222331F08091710214
:1042300087FF02C08EE101C086E0DF011D928A95F2
:10424000E9F7089508950C9422210E94232180917A
:104250007802843061F11092140220E488E190E049
:104260000FB6F894A895809360000FBE209360006D
:1042700080E00E94DA0680E00E9452070E9423211B
:1042800083B7817F846083BF83B7816083BF789465
:10429000889583B78E7F83BF0FB6F894A8958091D9
:1042A0006000886180936000109260000FBE0895E6
:1042B00008950895CF930E9458210E94DB0C0E941C
:1042C0005921C0E08C2F0E94730D892B29F4CF5FF8
:1042D000C530C1F780E001C081E0CF910895089515
:1042E0000C946F210E94D0190E94A3230E9486146F
:1042F0000E9452070C9470211F920F920FB60F92DA
:1043000011248F939F93AF93BF93809114028111D7
:1043100013C080916D0290916E02A0916F02B091D6
:1043200070024196A11DB11D80936D0290936E02A3
:10433000A0936F02B0937002BF91AF919F918F9144
:104340000F900FBE0F901F90189582E084BD93E0F0
:1043500095BD9AEF97BD80936E0008952FB7F8949E
:1043600080916D0290916E02A0916F02B0917002E7
:104370002FBF0895CF92DF92EF92FF920F931F937A
:104380002FB7F89440916D0250916E0260916F02C8
:10439000709170022FBF6A017B01EE24FF248C0113
:1043A00020E030E0C016D106E206F30610F44150DA
:1043B00051099A01281B390BC9011F910F91FF90D8
:1043C000EF90DF90CF90089578941F920F920FB6E0
:1043D0000F9211248F939F93AF93BF9380916D029F
:1043E00090916E02A0916F02B09170020196A11D92
:1043F000B11D80936D0290936E02A0936F02B093F3
:104400007002BF91AF919F918F910F900FBE0F904F
:104410001F90189581E08093E00080E28093D8009F
:104420001092C9008FE19EE40197F1F700C00000EF
:1044300087E090EBDC018093810290938202A0934D
:104440008302B09384029CE088E10FB6F894A895AB
:10445000809360000FBE90936000FFCFAF92BF9239
:10446000CF92DF92EF92FF920F931F93CF93C0E012
:10447000CC24C394D12CE82EF12C8C2F0E94730DE8
:104480005C0100E010E09601002E02C0220F331FF5
:104490000A94E2F72A213B21232B31F40F5F1F4FAF
:1044A0000F30110581F70AC0602F7C2F80E00E9439
:1044B000E309E816F90691F781E004C0CF5FC53043
:1044C000E1F680E0CF911F910F91FF90EF90DF9088
:1044D000CF90BF90AF900895CF93C82F8CE20E94E9
:1044E0002E22882321F08C2FCF910C942E2280E055
:1044F000CF910895CF930E941220811102C00E9493
:104500009320C5E6C15049F00E94DB0C8FE39CE983
:104510000197F1F700C00000F5CF89E20E946C22FC
:1045200081110FC18AE20E946C2281110E949320A6
:1045300085E00E946C2281110E940A220E941D20A7
:104540008093130287E00E946C228823A9F18BE1FB
:104550000E946C22882351F08091130281FB222754
:1045600020F991E0922790FB81F90EC08EE00E9425
:104570006C22882361F08091130282FB222720F9AC
:1045800091E0922790FB82F98093130215C080E19D
:104590000E946C2290911302882341F093FB222702
:1045A00020F981E0822780FB93F904C0892F809550
:1045B00080FB90F990931302809113020E942120B6
:1045C0000E942F2090E0909372028093710280EEFF
:1045D0000E946C22882341F080917102982F90955F
:1045E00090FB80F98093710289E30E946C228823FA
:1045F00059F08091710281FB222720F991E09227E6
:1046000090FB81F98093710282EE0E946C228823D4
:1046100059F08091710282FB222720F991E09227C4
:1046200090FB82F98093710286EE0E946C228823AF
:1046300059F08091710283FB222720F991E09227A3
:1046400090FB83F98093710283EE0E946C22882391
:1046500059F08091710284FB222720F991E0922782
:1046600090FB84F98093710285E30E946C22882379
:1046700059F08091710285FB222720F991E0922761
:1046800090FB85F98093710281E30E946C2288235C
:1046900059F08091710286FB222720F991E0922740
:1046A00090FB86F98093710281E10E946C2288233D
:1046B00059F08091710287FB222720F991E092271F
:1046C00090FB87F980937102809171020E943320E0
:1046D00087E20E946C22C82F8EE10E946C22811119
:1046E000C2608FE10E946C228111C46080E20E944E
:1046F0006C228111C86081E20E946C228111C0612C
:1047000082E20E946C228111C06283E20E946C22CC
:104710008111C06484E20E946C22882311F0C06879
:1047200002C0CC2329F08C2F0E942A206C2F03C0BA
:104730000E942620682F70E080E090E0CF910C94DA
:10474000AB1DCF9108950E941220811102C00E94DA
:1047500093200E94382080937302282F269530E002
:104760002A30310524F08170826180937302809138
:10477000730280FF02C0869501C080E00C94DA06C7
:1047800020917302822F8695482F50E049305105C1
:1047900044F48F5F982F990F822F8170892B80931B
:1047A0007302809173028160809373020E943C20A7
:1047B0008091730286950C94DA0680917302982F8B
:1047C000969591F09158990F8170892B809373027F
:1047D0008E7F91E009F490E08091730290FB80F964
:1047E000809373020E943C208091730286950C9402
:1047F000DA068091730280FD11C08160809373029C
:10480000813019F483E080937302809173020E94D7
:104810003C208091730286950C94DA06089580916D
:10482000730280FF08C08E7F809373020E943C2039
:1048300080E00C94DA0608958091730280FD0C9458
:104840000F240C94F92390917302892F86958F5F22
:104850008F7791708A3028F4880F892B80937302A8
:1048600002C090937302809173028E7F91E009F4ED
:1048700090E08091730290FB80F9809373020E9414
:104880003C208091730286950C94DA068A3008F0F9
:1048900089E0880F909173029170892B8093730245
:1048A0008E7F91E009F490E08091730290FB80F993
:1048B000809373020E943C208091730286950C9431
:1048C000DA06809135020895089508950895CF93EA
:1048D000DF93EC010E943B26823011F08430D9F541
:1048E00080911901882339F08091710287FF03C0FC
:1048F00060E282E002C068E081E08093E9008FEF2F
:104900009091E800815095FD06C095ED9A95F1F7DC
:1049100000008111F5CF8091E80085FF1CC08091D7
:104920001901811105C040E050E068E070E003C06B
:1049300070E040E050E0CE010E9458268091E800EF
:104940008E778093E80080E2FE01A5E1B2E001905D
:104950000D928A95E1F7DF91CF91089580917702CA
:10496000811109C00E94ED270E944A288091E2002F
:1049700084608093E200089510927702089508956C
:1049800008950C94722142E061EC81E00E94672757
:1049900042E261EC82E00C94672780917A028330D6
:1049A00009F460C030F4813071F0823009F499C0AC
:1049B00008958A3009F485C08B3009F46BC08930C2
:1049C00009F0A7C020C080917902813A09F0A1C006
:1049D0008091E800877F8093E80080917D0290912C
:1049E0007E02892B21F460E285E192E003C060E061
:1049F00080E090E070E00E94A3268091E8008B7731
:104A00008093E800089580917902813209F081C095
:104A100080917D0290917E02029708F07AC0809189
:104A2000E800877F8093E8008091E80082FD05C060
:104A3000809178028111F8CF6CC02091F3008091B1
:104A4000F20090E0922B029729F48091F1008B7F85
:104A5000813021F48091F100809335028091E8004B
:104A60008B7753C080917902813A09F052C08091CE
:104A70007D0290917E02892B09F04BC08091E80065
:104A8000877F8093E8008091E80080FFFCCF8091D1
:104A9000190136C0809179028132D9F580917D0269
:104AA00090917E02892BA9F58091E800877F809301
:104AB000E8000E949C2780917B02809319010C944E
:104AC000D01980917902813221F58091E800877FA9
:104AD0008093E8000E949C2780917C02809336029C
:104AE000089580917902813AA1F48091E800877F4E
:104AF0008093E8008091E80080FFFCCF809136022F
:104B00008093F1008091E8008E778093E8000C9408
:104B10009C27089584B7877F84BF0FB6F894A89523
:104B200080916000886180936000109260000FBEE9
:104B300080E880936100109261000E94E0140E945E
:104B4000ED270E944A288091E20084608093E20071
:104B500078940E94D92A0E94E6148FE091E00E9486
:104B6000811480917802853069F40E94252180911A
:104B700076028823B1F30E945A21882391F30E9480
:104B80004226EFCF0E94F0140E940C14EACF0C943E
:104B9000C925292F332723303105C9F064F421308A
:104BA000310581F02230310509F04CC08BE390E0F3
:104BB00022E33CE04BC02132310521F122323105A4
:104BC00089F140C082E190E02DE63CE03FC09927AA
:104BD0008130910571F02CF4892BA1F5EEE2FCE017
:104BE0000DC08230910541F0039761F5ECE0FCE0E7
:104BF00005C0EEE1FCE002C0E2E1FCE0849190E05F
:104C00009F0124C06115710541F061307105D1F437
:104C100089E090E02DE53CE019C089E090E024E4D3
:104C20003CE014C06115710541F06130710551F42B
:104C30008BE390E02FE73CE009C080E490E02AEBB2
:104C40003CE004C080E090E020E030E0FA013183F5
:104C5000208308950895CF93C82F0E942A26C093D9
:104C60003702CF91089580917802843011F081E06D
:104C7000089582E0089580913702811102C00C945A
:104C80003326089580E189BD82E189BD09B400FE23
:104C9000FDCF8091D8008F7D8093D8008091E00077
:104CA00082608093E0008091E00081FDFCCF089558
:104CB000CF92DF92EF92FF920F931F93CF93DF93E8
:104CC000EC018B016A010E94BB27811133C0C11422
:104CD000D10439F0F60180819181081B190BC80FAE
:104CE000D91FE12CF12C0115110519F18091E80073
:104CF00085FD16C08091E8008E778093E800C1148E
:104D0000D10449F0F60180819181E80EF91EF1820B
:104D1000E08285E00FC00E94BB27882321F30AC0F0
:104D200089918093F10001501109FFEFEF1AFF0AFA
:104D3000DACF80E0DF91CF911F910F91FF90EF903C
:104D4000DF90CF90089520917F0230918002261746
:104D5000370748F06115710539F42091E8002E7786
:104D60002093E80001C0B90140E061157105A9F187
:104D700020917802222309F443C0253009F442C06F
:104D80002091E80023FD40C02091E80022FD32C0C0
:104D90002091E80020FFE9CF4091F3002091F2003C
:104DA00030E0342BFC01CF016115710559F028303A
:104DB000310540F481918093F100615071092F5FBA
:104DC0003F4FF1CF41E02830310509F040E020911C
:104DD000E8002E772093E800C8CF4111C9CF0AC060
:104DE00080917802882361F0853061F08091E8003D
:104DF00083FD0AC08091E80082FFF2CF80E0089531
:104E000082E0089583E0089581E0089520917F0273
:104E1000309180022617370748F06115710539F483
:104E20002091E8002E772093E80001C0B901FC0131
:104E300020E06115710591F180917802882309F4D1
:104E400040C0853009F43FC08091E80083FD3DC03B
:104E50008091E80082FD2FC08091E80080FFE9CFBB
:104E60002091F3008091F20090E0922B6115710582
:104E700059F08830910540F424912093F100319647
:104E8000615071090196F2CF21E0089709F020E006
:104E90008091E8008E778093E800CBCF2111CCCFB2
:104EA0000AC080917802882361F0853061F080919A
:104EB000E80083FD0AC08091E80082FFF2CF80E025
:104EC000089582E0089583E0089581E00895982F81
:104ED000973058F59093E900981739F07091EC00ED
:104EE0002091ED005091F00003C0242F762F50E068
:104EF00021FF19C03091EB003E7F3093EB003091E1
:104F0000ED003D7F3093ED003091EB003160309348
:104F1000EB007093EC002093ED005093F000209193
:104F2000EE0027FF07C09F5FD3CF8F708093E9000B
:104F300081E0089580E008958091790287FF11C093
:104F40008091E80082FD05C0809178028111F8CF40
:104F500011C08091E8008B770BC080917802882384
:104F600049F08091E80080FFF8CF8091E8008E77CB
:104F70008093E80008952091E4003091E50095E6E3
:104F80004091EC00842F817040FF22C08091E800A6
:104F900080FD1CC080917802882391F0853091F0CB
:104FA0008091EB0085FD10C04091E4005091E50038
:104FB0004217530729F39A01915011F784E008959D
:104FC00082E0089583E0089581E0089580E00895E7
:104FD0004091E80042FFDECF08950E945B280E94C6
:104FE0006328E0EEF0E0808181608083E8EDF0E00E
:104FF00080818F77808319BCA7EDB0E08C918E7F84
:105000008C9380818F7E80831092770208950F9316
:105010001F93CF93DF930E945B280E946328C8ED03
:10502000D0E088818F7788838881806888838881B1
:105030008F7D888319BC10927802109274021092AE
:1050400076021092750200EE10E0F80180818B7FED
:10505000808388818160888342E060E080E00E94F4
:105060006727E1EEF0E080818E7F8083E2EEF0E062
:10507000808181608083808188608083F801808165
:105080008E7F8083888180618883DF91CF911F919B
:105090000F910895E8EDF0E080818F7E8083E7ED49
:1050A000F0E080818160808384E082BF81E0809332
:1050B00077020C940728E8EDF0E080818E7F8083F2
:1050C0001092E20008951092DA001092E100089523
:1050D0001F920F920FB60F9211242F933F934F936D
:1050E0005F936F937F938F939F93AF93BF93EF9350
:1050F000FF938091E10082FF0BC08091E20082FF6C
:1051000007C08091E1008B7F8093E1000E94D82A44
:105110008091DA0080FF1FC08091D80080FF1BC003
:105120008091DA008E7F8093DA008091D90080FF31
:105130000DC080E189BD82E189BD09B400FEFDCFCB
:1051400081E0809378020E94AE2405C019BC1092C1
:1051500078020E94BC248091E10080FF19C08091F8
:10516000E20080FF15C08091E2008E7F8093E20014
:105170008091E20080618093E2008091D80080629B
:105180008093D80019BC85E0809378020E94C024E7
:105190008091E10084FF30C08091E20084FF2CC048
:1051A00080E189BD82E189BD09B400FEFDCF809117
:1051B000D8008F7D8093D8008091E1008F7E80930E
:1051C000E1008091E2008F7E8093E2008091E20016
:1051D00081608093E20080917402882311F084E062
:1051E00007C08091E30087FD02C081E001C083E039
:1051F000809378020E94C1248091E10083FF29C03E
:105200008091E20083FF25C08091E100877F809339
:10521000E10082E080937802109274028091E100B4
:105220008E7F8093E1008091E2008E7F8093E20088
:105230008091E20080618093E20042E060E080E0E3
:105240000E9467278091F00088608093F0000E94A0
:10525000BF24FF91EF91BF91AF919F918F917F916B
:105260006F915F914F913F912F910F900FBE0F90D3
:105270001F9018951F920F920FB60F9211242F9323
:105280003F934F935F936F937F938F939F93AF93CE
:10529000BF93CF93DF93EF93FF93C091E900CF705B
:1052A0008091EC00D82FD17080FDD0E81092E900F9
:1052B0008091F000877F8093F00078940E947E298F
:1052C0001092E9008091F00088608093F000CD2B6F
:1052D000CF70C093E900FF91EF91DF91CF91BF9123
:1052E000AF919F918F917F916F915F914F913F917E
:1052F0002F910F900FBE0F901F9018951F93CF9373
:10530000DF93CDB7DEB7AA970FB6F894DEBF0FBE16
:10531000CDBFE9E7F2E088E08E0F9091F100919324
:105320008E13FBCF0E94CD248091E80083FF28C11B
:105330008091790290917A02492F50E04A305105CC
:1053400008F01EC1FA01E556FF4F0C94972E8038E5
:1053500021F0823809F014C108C080917502909143
:105360007602992389F082600FC080917D028F7050
:10537000873008F005C18093E9008091EB0085FB40
:10538000882780F91092E9009091E800977F909328
:10539000E8008093F1001092F100D0C0282F2D7FFB
:1053A00009F0EEC0882319F0823061F0E9C08091E5
:1053B0007B02813009F0E4C0933009F080E08093F3
:1053C00076022EC080917B0281112AC080917D02DD
:1053D0008F702FEF280F263008F0D2C08093E9009D
:1053E0002091EB0020FF1CC0933021F48091EB0052
:1053F000806214C09091EB0090619093EB0021E0EB
:1054000030E0A90102C0440F551F8A95E2F740938E
:10541000EA001092EA008091EB0088608093EB0034
:105420001092E9008091E800877F8093E8000E9455
:105430009C27A6C08111A4C010917B021F77809188
:10544000E3008078812B8093E3008091E800877FE0
:105450008093E8000E949C278091E80080FFFCCFA9
:105460008091E30080688093E300111102C082E024
:1054700001C083E08093780283C08058823008F0B6
:105480007FC080917B0290917C028C3D53E0950718
:1054900079F583E08A838AE289834FB7F894DE0145
:1054A000139620E03EE051E2E32FF0E050935700E6
:1054B000E49120FF03C0E295EF703F5FEF708E2F05
:1054C00090E0EA3010F0C79601C0C0968D939D938E
:1054D0002F5F243149F74FBF8091E800877F809389
:1054E000E8006AE270E0CE0101960E94A32615C092
:1054F00060917D0270917E02AE014F5F5F4F0E940E
:10550000C725BC01892BE1F19091E800977F90932A
:10551000E80089819A810E9406278091E8008B77B4
:105520008093E8002DC0803859F58091E800877F8E
:105530008093E800809174028093F1008091E800EC
:105540008E7773CF81111CC090917B029230C0F492
:105550008091E800877F8093E800909374020E9416
:105560009C2780917402811106C08091E30087FD21
:1055700002C081E001C084E0809378020E94C324CD
:105580008091E80083FF0AC08091E800877F8093C4
:10559000E8008091EB0080628093EB00AA960FB642
:1055A000F894DEBF0FBECDBFDF91CF911F9108955C
:1055B0000895CF93809178028823A1F0C091E900EB
:1055C000CF709091EC00892F817090FD80E8C82BFE
:1055D0001092E9008091E80083FD0E947E29CF703F
:1055E000C093E900CF9108955058BB27AA270E9485
:1055F0000C2B0C94B72C0E94A92C38F00E94B02CD4
:1056000020F039F49F3F19F426F40C947F2C0EF40B
:10561000E095E7FB0C94792CE92F0E94C82C58F3F5
:10562000BA17620773078407950720F079F4A6F587
:105630000C94EA2C0EF4E0950B2EBA2FA02D0B0142
:10564000B90190010C01CA01A0011124FF27591BC7
:1056500099F0593F50F4503E68F11A16F040A22FCD
:10566000232F342F4427585FF3CF4695379527953E
:10567000A795F0405395C9F77EF41F16BA0B620B3D
:10568000730B840BBAF09150A1F0FF0FBB1F661F84
:10569000771F881FC2F70EC0BA0F621F731F841FC7
:1056A00048F4879577956795B795F7959E3F08F0ED
:1056B000B0CF9395880F08F09927EE0F97958795AF
:1056C00008950E94752B0C94B72C0E94B02C58F0B2
:1056D0000E94A92C40F029F45F3F29F00C94792C0A
:1056E00051110C94EB2C0C947F2C0E94C82C68F365
:1056F0009923B1F3552391F3951B550BBB27AA278B
:1057000062177307840738F09F5F5F4F220F331FC4
:10571000441FAA1FA9F335D00E2E3AF0E0E832D08C
:1057200091505040E695001CCAF72BD0FE2F29D08F
:10573000660F771F881FBB1F261737074807AB0761
:10574000B0E809F0BB0B802DBF01FF2793585F4FD6
:105750003AF09E3F510578F00C94792C0C94EB2C88
:105760005F3FE4F3983ED4F3869577956795B795B8
:10577000F7959F5FC9F7880F911D9695879597F9C3
:105780000895E1E0660F771F881FBB1F621773073C
:105790008407BA0720F0621B730B840BBA0BEE1F51
:1057A00088F7E095089529F416F00C94792C0C9460
:1057B000EA2C0C947F2C0E94D02CA8F39638A0F7EA
:1057C00007F80F92E8942BE33AEA48EB5FE70E9470
:1057D0007D2D0F920F920F924DB75EB70F920E94E0
:1057E000332DEAE4F1E00E94822C4F915F91EF911A
:1057F000FF91E595EE1FFF1F49F0FE57E068442733
:10580000EE0F441FFA95E1F74195550B0E94FD2CD0
:105810000F9007FE0C94F12C08950E94D02C88F074
:105820009F5798F0B92F9927B751B0F0E1F0660F64
:10583000771F881F991F1AF0BA95C9F714C0B130A5
:1058400091F00E94EA2CB1E008950C94EA2C672FA5
:10585000782F8827B85F39F0B93FCCF386957795D4
:105860006795B395D9F73EF49095809570956195BD
:105870007F4F8F4F9F4F0895E89409C097FB3EF4E8
:1058800090958095709561957F4F8F4F9F4F99238D
:10589000A9F0F92F96E9BB279395F695879577950B
:1058A0006795B795F111F8CFFAF4BB0F11F460FFCB
:1058B0001BC06F5F7F4F8F4F9F4F16C0882311F023
:1058C00096E911C0772321F09EE8872F762F05C037
:1058D000662371F096E8862F70E060E02AF09A95D2
:1058E000660F771F881FDAF7880F9695879597F9C7
:1058F000089597F99F6780E870E060E008959FEF52
:1059000080EC0895DF93CF931F930F93FF92EF9254
:10591000DF927B018C01689406C0DA2EEF010E94B1
:105920007A2DFE01E894A5912591359145915591E7
:10593000A6F3EF010E940C2BFE019701A801DA9457
:1059400069F7DF90EF90FF900F911F91CF91DF915A
:10595000089500240A9416161706180609060895D5
:1059600000240A9412161306140605060895092E3B
:105970000394000C11F4882352F0BB0F40F4BF2BAA
:1059800011F460FF04C06F5F7F4F8F4F9F4F0895EA
:1059900057FD9058440F551F59F05F3F71F04795E0
:1059A000880F97FB991F61F09F3F79F087950895C5
:1059B000121613061406551FF2CF4695F1DF08C0E4
:1059C000161617061806991FF1CF86957105610501
:1059D00008940895E894BB2766277727CB0197F9A9
:1059E00008959B01AC0160E070E080E89FE30C94B7
:1059F000612B0C94792C0C94DC2D0E94D02CD8F3C4
:105A00009923C9F3940F511DA3F39150504094F082
:105A100059F0882332F0660F771F881F915050404D
:105A2000C1F79E3F51052CF7880F911D96958795DC
:105A300097F908955F3FACF0983E9CF0BB278695A0
:105A400077956795B79508F4B1609395C1F7BB0F4B
:105A500058F711F460FFE8CF6F5F7F4F8F4F9F4F74
:105A6000E3CF0C94EB2CFA01DC01AA0FBB1F9B01C6
:105A7000AC01BF5728F4222733274427507820C091
:105A8000B75190F4AB2F0024469537952795011C0C
:105A9000A395D2F3002071F0220F331F441FB3955A
:105AA000DAF30ED00C94F42A61307105A0E88A076D
:105AB000B94630F49B01AC01662777278827907898
:105AC000309621F0208331834283538308950E94CE
:105AD0007A2D0C94B72C0E94A92C38F00E94B02C7F
